{
  "transactions": [
    {
      "hash": "0xb1206b05aa1b99b63131d93e69a819f5b651984522592ac51ee4a8820142c212",
      "transactionType": "CALL",
      "contractName": null,
      "contractAddress": "0xf60aa2e36e214f457b625e0cf9abd89029a0441e",
      "function": "registerBank(bytes32,string,address)",
      "arguments": [
        "0x3ccf8b2ea38ec15ed22a60255dd746b3d49647c53179342e93b934fc6357e42a",
        "Banco Bradesco",
        "0xB40061C7bf8394eb130Fcb5EA06868064593BFAa"
      ],
      "transaction": {
        "from": "0xb40061c7bf8394eb130fcb5ea06868064593bfaa",
        "to": "0xf60aa2e36e214f457b625e0cf9abd89029a0441e",
        "gas": "0x377b1",
        "value": "0x0",
        "input": "0xdd3e36f83ccf8b2ea38ec15ed22a60255dd746b3d49647c53179342e93b934fc6357e42a0000000000000000000000000000000000000000000000000000000000000060000000000000000000000000b40061c7bf8394eb130fcb5ea06868064593bfaa000000000000000000000000000000000000000000000000000000000000000e42616e636f20427261646573636f000000000000000000000000000000000000",
        "nonce": "0x34",
        "chainId": "0x539"
      },
      "additionalContracts": [],
      "isFixedGasLimit": false
    }
  ],
  "receipts": [
    {
      "status": "0x1",
      "cumulativeGasUsed": "0x282ad",
      "logs": [
        {
          "address": "0xf60aa2e36e214f457b625e0cf9abd89029a0441e",
          "topics": [
            "0x9a48fd54464f653f19dc93bf41e82dce9e6877121a02873489b4635887169bbc",
            "0x3ccf8b2ea38ec15ed22a60255dd746b3d49647c53179342e93b934fc6357e42a",
            "0x000000000000000000000000b40061c7bf8394eb130fcb5ea06868064593bfaa"
          ],
          "data": "0x0000000000000000000000000000000000000000000000000000000000000020000000000000000000000000000000000000000000000000000000000000000e42616e636f20427261646573636f000000000000000000000000000000000000",
          "blockHash": "0xc1acac5f3882a9864e7362af5b95202533712df0ba87e507f4f5fbacaa4bae46",
          "blockNumber": "0x1adf59",
          "transactionHash": "0xb1206b05aa1b99b63131d93e69a819f5b651984522592ac51ee4a8820142c212",
          "transactionIndex": "0x0",
          "logIndex": "0x0",
          "removed": false
        }
      ],
      "logsBloom": "0x00001000000010000000040000000000000000000000000000000000000000000000000000000000000010000000000000000000000000000000000000000000000000000000000000000000000000000000000000000000000000000000000000080000000000000000000000000000000000000000000000000000000000000000000000010000000000000000000000000000000000000000000000000000000000200000000000000000800000000000000000400000000000000000000000000000000000000000000000000000000000000000000000008000000000000000000000000000000000004000000000000000000000000000000000010000",
      "type": "0x0",
      "transactionHash": "0xb1206b05aa1b99b63131d93e69a819f5b651984522592ac51ee4a8820142c212",
      "transactionIndex": "0x0",
      "blockHash": "0xc1acac5f3882a9864e7362af5b95202533712df0ba87e507f4f5fbacaa4bae46",
      "blockNumber": "0x1adf59",
      "gasUsed": "0x282ad",
      "effectiveGasPrice": "0x0",
      "from": "0xb40061c7bf8394eb130fcb5ea06868064593bfaa",
      "to": "0xf60aa2e36e214f457b625e0cf9abd89029a0441e",
      "contractAddress": null
    }
  ],
  "libraries": [],
  "pending": [],
  "returns": {},
  "timestamp": 1758582886198,
  "chain": 1337,
  "commit": "fd3dd05"
}