{
  "transactions": [
    {
      "hash": "0x51d20cbbd36bd34cc769b9a61d638262a4e3cac76d63b55adda391143b6087df",
      "transactionType": "CALL",
      "contractName": null,
      "contractAddress": "0xf60aa2e36e214f457b625e0cf9abd89029a0441e",
      "function": "createBankAccount(address,bytes32,uint256,bytes)",
      "arguments": [
        "0x742d35Cc6634C0532925A3b8D7c9C0F4b8B8b8B8",
        "0x3ccf8b2ea38ec15ed22a60255dd746b3d49647c53179342e93b934fc6357e42a",
        "12345",
        "0x00000000000000000000000000000000000000000000021e19e0c9bab2400000000000000000000000000000000000000000000000000a968163f0a57b400000000000000000000000000000000000000000000000002a5a058fc295ed00000000000000000000000000000000000000000000000000010f0cf064dd5920000000000000000000000000000000000000000000000000021e19e0c9bab2400000000000000000000000000000000000000000000000000000000000000000000100000000000000000000000000000000000000000000000000000000000000010000000000000000000000000000000000000000000000000000000000000001"
      ],
      "transaction": {
        "from": "0xb40061c7bf8394eb130fcb5ea06868064593bfaa",
        "to": "0xf60aa2e36e214f457b625e0cf9abd89029a0441e",
        "gas": "0xd3d32",
        "value": "0x0",
        "input": "0x9a560683000000000000000000000000742d35cc6634c0532925a3b8d7c9c0f4b8b8b8b83ccf8b2ea38ec15ed22a60255dd746b3d49647c53179342e93b934fc6357e42a00000000000000000000000000000000000000000000000000000000000030390000000000000000000000000000000000000000000000000000000000000080000000000000000000000000000000000000000000000000000000000000010000000000000000000000000000000000000000000000021e19e0c9bab2400000000000000000000000000000000000000000000000000a968163f0a57b400000000000000000000000000000000000000000000000002a5a058fc295ed00000000000000000000000000000000000000000000000000010f0cf064dd5920000000000000000000000000000000000000000000000000021e19e0c9bab2400000000000000000000000000000000000000000000000000000000000000000000100000000000000000000000000000000000000000000000000000000000000010000000000000000000000000000000000000000000000000000000000000001",
        "nonce": "0x35",
        "chainId": "0x539"
      },
      "additionalContracts": [
        {
          "transactionType": "CREATE2",
          "address": "0xca126b580521c01528d4f4f2db1a097e11a0c8b0",
          "initCode": "0x3d602d80600a3d3981f3363d3d373d3d3d363d73524db0420d1b8c3870933d1fddac6bbaa63c2ca65af43d82803e903d91602b57fd5bf3"
        }
      ],
      "isFixedGasLimit": false
    }
  ],
  "receipts": [
    {
      "status": "0x1",
      "cumulativeGasUsed": "0x995b8",
      "logs": [
        {
          "address": "0xca126b580521c01528d4f4f2db1a097e11a0c8b0",
          "topics": [
            "0x84452743b8fd1a59e2ba35794357dc8e879e80c73f03c90dcd9440ab3e2c0e8d",
            "0x000000000000000000000000742d35cc6634c0532925a3b8d7c9c0f4b8b8b8b8",
            "0x3ccf8b2ea38ec15ed22a60255dd746b3d49647c53179342e93b934fc6357e42a",
            "0x000000000000000000000000f60aa2e36e214f457b625e0cf9abd89029a0441e"
          ],
          "data": "0x",
          "blockHash": "0x5e626040c590c2d3250b9d20311a0476a1d744bedcaf49ee2100633275bd7d83",
          "blockNumber": "0x1af93d",
          "transactionHash": "0x51d20cbbd36bd34cc769b9a61d638262a4e3cac76d63b55adda391143b6087df",
          "transactionIndex": "0x0",
          "logIndex": "0x0",
          "removed": false
        },
        {
          "address": "0xca126b580521c01528d4f4f2db1a097e11a0c8b0",
          "topics": [
            "0xc7f505b2f371ae2175ee4913f4499e1f2633a7b5936321eed1cdaeb6115181d2"
          ],
          "data": "0x0000000000000000000000000000000000000000000000000000000000000001",
          "blockHash": "0x5e626040c590c2d3250b9d20311a0476a1d744bedcaf49ee2100633275bd7d83",
          "blockNumber": "0x1af93d",
          "transactionHash": "0x51d20cbbd36bd34cc769b9a61d638262a4e3cac76d63b55adda391143b6087df",
          "transactionIndex": "0x0",
          "logIndex": "0x1",
          "removed": false
        },
        {
          "address": "0xf60aa2e36e214f457b625e0cf9abd89029a0441e",
          "topics": [
            "0x1701f11187dd3160f747eb81200938a2da524fd82c71c1c2fba7d75d8704926b",
            "0x000000000000000000000000ca126b580521c01528d4f4f2db1a097e11a0c8b0",
            "0x000000000000000000000000742d35cc6634c0532925a3b8d7c9c0f4b8b8b8b8",
            "0x3ccf8b2ea38ec15ed22a60255dd746b3d49647c53179342e93b934fc6357e42a"
          ],
          "data": "0x0000000000000000000000000000000000000000000000000000000000003039",
          "blockHash": "0x5e626040c590c2d3250b9d20311a0476a1d744bedcaf49ee2100633275bd7d83",
          "blockNumber": "0x1af93d",
          "transactionHash": "0x51d20cbbd36bd34cc769b9a61d638262a4e3cac76d63b55adda391143b6087df",
          "transactionIndex": "0x0",
          "logIndex": "0x2",
          "removed": false
        },
        {
          "address": "0xf60aa2e36e214f457b625e0cf9abd89029a0441e",
          "topics": [
            "0x9d123fd08dce6c3241e638239aa0cfdecd9b00be0f7f3e9fe51eb0c0dcfe870a",
            "0x000000000000000000000000ca126b580521c01528d4f4f2db1a097e11a0c8b0",
            "0x4143434f554e545f435245415445440000000000000000000000000000000000"
          ],
          "data": "0x0000000000000000000000000000000000000000000000000000000000000020000000000000000000000000000000000000000000000000000000000000010000000000000000000000000000000000000000000000021e19e0c9bab2400000000000000000000000000000000000000000000000000a968163f0a57b400000000000000000000000000000000000000000000000002a5a058fc295ed00000000000000000000000000000000000000000000000000010f0cf064dd5920000000000000000000000000000000000000000000000000021e19e0c9bab2400000000000000000000000000000000000000000000000000000000000000000000100000000000000000000000000000000000000000000000000000000000000010000000000000000000000000000000000000000000000000000000000000001",
          "blockHash": "0x5e626040c590c2d3250b9d20311a0476a1d744bedcaf49ee2100633275bd7d83",
          "blockNumber": "0x1af93d",
          "transactionHash": "0x51d20cbbd36bd34cc769b9a61d638262a4e3cac76d63b55adda391143b6087df",
          "transactionIndex": "0x0",
          "logIndex": "0x3",
          "removed": false
        }
      ],
      "logsBloom": "0x00000000000010001000040000000000000000000000000000400000001020000000001000000080000010400000002000000000000000000000000000080000000002000000800080000000000200000000000000000000000000000000000000000000000000000000000000000000000000000000000000000000000000000000000000010000000800200000000000000000000088000000000000002000000000201000000000000008000000000000000000400004040000000004000004000000000000000000000000000000000000000004000000000000000000000000000000000000000004000000000000000000000000000000000000000000",
      "type": "0x0",
      "transactionHash": "0x51d20cbbd36bd34cc769b9a61d638262a4e3cac76d63b55adda391143b6087df",
      "transactionIndex": "0x0",
      "blockHash": "0x5e626040c590c2d3250b9d20311a0476a1d744bedcaf49ee2100633275bd7d83",
      "blockNumber": "0x1af93d",
      "gasUsed": "0x995b8",
      "effectiveGasPrice": "0x0",
      "from": "0xb40061c7bf8394eb130fcb5ea06868064593bfaa",
      "to": "0xf60aa2e36e214f457b625e0cf9abd89029a0441e",
      "contractAddress": null
    }
  ],
  "libraries": [],
  "pending": [],
  "returns": {},
  "timestamp": 1758596142293,
  "chain": 1337,
  "commit": "fd3dd05"
}