{
  "transactions": [
    {
      "hash": "0xe8813f1c68bf60584c7f3c2103717afbcb7fdfc83b0ba596844d9c70c4ce295b",
      "transactionType": "CALL",
      "contractName": null,
      "contractAddress": "0xf60aa2e36e214f457b625e0cf9abd89029a0441e",
      "function": "createBankAccount(address,bytes32,uint256,bytes)",
      "arguments": [
        "0x17E5545B11b468072283Cee1F066a059Fb0dbF24",
        "0x3ccf8b2ea38ec15ed22a60255dd746b3d49647c53179342e93b934fc6357e42a",
        "231235",
        "0x00000000000000000000000000000000000000000000021e19e0c9bab2400000000000000000000000000000000000000000000000000a968163f0a57b400000000000000000000000000000000000000000000000002a5a058fc295ed00000000000000000000000000000000000000000000000000010f0cf064dd5920000000000000000000000000000000000000000000000000021e19e0c9bab2400000000000000000000000000000000000000000000000000000000000000000000100000000000000000000000000000000000000000000000000000000000000010000000000000000000000000000000000000000000000000000000000000002"
      ],
      "transaction": {
        "from": "0xb40061c7bf8394eb130fcb5ea06868064593bfaa",
        "to": "0xf60aa2e36e214f457b625e0cf9abd89029a0441e",
        "gas": "0xc2879",
        "value": "0x0",
        "input": "0x9a56068300000000000000000000000017e5545b11b468072283cee1f066a059fb0dbf243ccf8b2ea38ec15ed22a60255dd746b3d49647c53179342e93b934fc6357e42a00000000000000000000000000000000000000000000000000000000000387430000000000000000000000000000000000000000000000000000000000000080000000000000000000000000000000000000000000000000000000000000010000000000000000000000000000000000000000000000021e19e0c9bab2400000000000000000000000000000000000000000000000000a968163f0a57b400000000000000000000000000000000000000000000000002a5a058fc295ed00000000000000000000000000000000000000000000000000010f0cf064dd5920000000000000000000000000000000000000000000000000021e19e0c9bab2400000000000000000000000000000000000000000000000000000000000000000000100000000000000000000000000000000000000000000000000000000000000010000000000000000000000000000000000000000000000000000000000000002",
        "nonce": "0x36",
        "chainId": "0x539"
      },
      "additionalContracts": [
        {
          "transactionType": "CREATE2",
          "address": "0x50c4f81ef93a6eba8f3dc5379f4a37d7218037bc",
          "initCode": "0x3d602d80600a3d3981f3363d3d373d3d3d363d73524db0420d1b8c3870933d1fddac6bbaa63c2ca65af43d82803e903d91602b57fd5bf3"
        }
      ],
      "isFixedGasLimit": false
    }
  ],
  "receipts": [
    {
      "status": "0x1",
      "cumulativeGasUsed": "0x8cd60",
      "logs": [
        {
          "address": "0x50c4f81ef93a6eba8f3dc5379f4a37d7218037bc",
          "topics": [
            "0x84452743b8fd1a59e2ba35794357dc8e879e80c73f03c90dcd9440ab3e2c0e8d",
            "0x00000000000000000000000017e5545b11b468072283cee1f066a059fb0dbf24",
            "0x3ccf8b2ea38ec15ed22a60255dd746b3d49647c53179342e93b934fc6357e42a",
            "0x000000000000000000000000f60aa2e36e214f457b625e0cf9abd89029a0441e"
          ],
          "data": "0x",
          "blockHash": "0xaf4c2e919891f2353029a4bc41d4c35cc211144da1f73a9351432199303dbfee",
          "blockNumber": "0x1b01c3",
          "transactionHash": "0xe8813f1c68bf60584c7f3c2103717afbcb7fdfc83b0ba596844d9c70c4ce295b",
          "transactionIndex": "0x0",
          "logIndex": "0x0",
          "removed": false
        },
        {
          "address": "0x50c4f81ef93a6eba8f3dc5379f4a37d7218037bc",
          "topics": [
            "0xc7f505b2f371ae2175ee4913f4499e1f2633a7b5936321eed1cdaeb6115181d2"
          ],
          "data": "0x0000000000000000000000000000000000000000000000000000000000000001",
          "blockHash": "0xaf4c2e919891f2353029a4bc41d4c35cc211144da1f73a9351432199303dbfee",
          "blockNumber": "0x1b01c3",
          "transactionHash": "0xe8813f1c68bf60584c7f3c2103717afbcb7fdfc83b0ba596844d9c70c4ce295b",
          "transactionIndex": "0x0",
          "logIndex": "0x1",
          "removed": false
        },
        {
          "address": "0xf60aa2e36e214f457b625e0cf9abd89029a0441e",
          "topics": [
            "0x1701f11187dd3160f747eb81200938a2da524fd82c71c1c2fba7d75d8704926b",
            "0x00000000000000000000000050c4f81ef93a6eba8f3dc5379f4a37d7218037bc",
            "0x00000000000000000000000017e5545b11b468072283cee1f066a059fb0dbf24",
            "0x3ccf8b2ea38ec15ed22a60255dd746b3d49647c53179342e93b934fc6357e42a"
          ],
          "data": "0x0000000000000000000000000000000000000000000000000000000000038743",
          "blockHash": "0xaf4c2e919891f2353029a4bc41d4c35cc211144da1f73a9351432199303dbfee",
          "blockNumber": "0x1b01c3",
          "transactionHash": "0xe8813f1c68bf60584c7f3c2103717afbcb7fdfc83b0ba596844d9c70c4ce295b",
          "transactionIndex": "0x0",
          "logIndex": "0x2",
          "removed": false
        },
        {
          "address": "0xf60aa2e36e214f457b625e0cf9abd89029a0441e",
          "topics": [
            "0x9d123fd08dce6c3241e638239aa0cfdecd9b00be0f7f3e9fe51eb0c0dcfe870a",
            "0x00000000000000000000000050c4f81ef93a6eba8f3dc5379f4a37d7218037bc",
            "0x4143434f554e545f435245415445440000000000000000000000000000000000"
          ],
          "data": "0x0000000000000000000000000000000000000000000000000000000000000020000000000000000000000000000000000000000000000000000000000000010000000000000000000000000000000000000000000000021e19e0c9bab2400000000000000000000000000000000000000000000000000a968163f0a57b400000000000000000000000000000000000000000000000002a5a058fc295ed00000000000000000000000000000000000000000000000000010f0cf064dd5920000000000000000000000000000000000000000000000000021e19e0c9bab2400000000000000000000000000000000000000000000000000000000000000000000100000000000000000000000000000000000000000000000000000000000000010000000000000000000000000000000000000000000000000000000000000002",
          "blockHash": "0xaf4c2e919891f2353029a4bc41d4c35cc211144da1f73a9351432199303dbfee",
          "blockNumber": "0x1b01c3",
          "transactionHash": "0xe8813f1c68bf60584c7f3c2103717afbcb7fdfc83b0ba596844d9c70c4ce295b",
          "transactionIndex": "0x0",
          "logIndex": "0x3",
          "removed": false
        }
      ],
      "logsBloom": "0x0000040000001000100004000000000000000000000000000040000000100000000000100002008000001040000000200000000000000000000000000000000000000200000000000000000000000000000000000000000000000000000000000000000000000000000000000000000000000000000000000000000000000000a000000000010000000800000000000000100000000080000000000000002000000400201000000000000008000000000000000000400004000000000004002004000000000000000000000000000000000000000004000000000000000000000000000000000000000004000000000000000200000000000000000000004000",
      "type": "0x0",
      "transactionHash": "0xe8813f1c68bf60584c7f3c2103717afbcb7fdfc83b0ba596844d9c70c4ce295b",
      "transactionIndex": "0x0",
      "blockHash": "0xaf4c2e919891f2353029a4bc41d4c35cc211144da1f73a9351432199303dbfee",
      "blockNumber": "0x1b01c3",
      "gasUsed": "0x8cd60",
      "effectiveGasPrice": "0x0",
      "from": "0xb40061c7bf8394eb130fcb5ea06868064593bfaa",
      "to": "0xf60aa2e36e214f457b625e0cf9abd89029a0441e",
      "contractAddress": null
    }
  ],
  "libraries": [],
  "pending": [],
  "returns": {},
  "timestamp": 1758600506550,
  "chain": 1337,
  "commit": "4ff7a17"
}