{
  "transactions": [
    {
      "hash": "0x824e57580add0aa73197dc467aa5feb81964a8bedd850629bdb1214f5bcc742d",
      "transactionType": "CALL",
      "contractName": null,
      "contractAddress": "0x68c01dbd04447c971b4d55b06952348bc8bfed82",
      "function": "grantRole(bytes32,address)",
      "arguments": [
        "0x114e74f6ea3bd819998f78687bfcb11b140da08e9b7d222fa9c1f1ba1f2aa122",
        "0x0D989268a4B52D9C7026FEA8b442b5EA7247Abd3"
      ],
      "transaction": {
        "from": "0x0d989268a4b52d9c7026fea8b442b5ea7247abd3",
        "to": "0x68c01dbd04447c971b4d55b06952348bc8bfed82",
        "gas": "0x1151a",
        "value": "0x0",
        "input": "0x2f2ff15d114e74f6ea3bd819998f78687bfcb11b140da08e9b7d222fa9c1f1ba1f2aa1220000000000000000000000000d989268a4b52d9c7026fea8b442b5ea7247abd3",
        "nonce": "0x2",
        "chainId": "0x539"
      },
      "additionalContracts": [],
      "isFixedGasLimit": false
    }
  ],
  "receipts": [
    {
      "status": "0x1",
      "cumulativeGasUsed": "0xc89f",
      "logs": [
        {
          "address": "0x68c01dbd04447c971b4d55b06952348bc8bfed82",
          "topics": [
            "0x2f8788117e7eff1d82e926ec794901d17c78024a50270940304540a733656f0d",
            "0x114e74f6ea3bd819998f78687bfcb11b140da08e9b7d222fa9c1f1ba1f2aa122",
            "0x0000000000000000000000000d989268a4b52d9c7026fea8b442b5ea7247abd3",
            "0x0000000000000000000000000d989268a4b52d9c7026fea8b442b5ea7247abd3"
          ],
          "data": "0x",
          "blockHash": "0x8aa1cf63ebae18edf307b0c16b93ed7d8b691b8bced17b171be9ebf8e92bbe62",
          "blockNumber": "0x1b094e",
          "transactionHash": "0x824e57580add0aa73197dc467aa5feb81964a8bedd850629bdb1214f5bcc742d",
          "transactionIndex": "0x0",
          "logIndex": "0x0",
          "removed": false
        }
      ],
      "logsBloom": "0x00040004000000000000000000000010000000000000000000000000000000000000000000000000000000000000000000000000000000000000000000000000000000000000000000000000000000000000000000000000000000000000000000000000000002000000000000000000000000000000000000000040000000000000000000000000000000000000000000000000000000000000000000000000000000000000000000000000000000000000000000000000001000000001000000000000000000000000000000000000000000000000000100000000000000004000020004000000000000000000000000000000000000000020000000000000",
      "type": "0x0",
      "transactionHash": "0x824e57580add0aa73197dc467aa5feb81964a8bedd850629bdb1214f5bcc742d",
      "transactionIndex": "0x0",
      "blockHash": "0x8aa1cf63ebae18edf307b0c16b93ed7d8b691b8bced17b171be9ebf8e92bbe62",
      "blockNumber": "0x1b094e",
      "gasUsed": "0xc89f",
      "effectiveGasPrice": "0x0",
      "from": "0x0d989268a4b52d9c7026fea8b442b5ea7247abd3",
      "to": "0x68c01dbd04447c971b4d55b06952348bc8bfed82",
      "contractAddress": null
    }
  ],
  "libraries": [],
  "pending": [],
  "returns": {},
  "timestamp": 1758604369629,
  "chain": 1337,
  "commit": "4ff7a17"
}