{
  "transactions": [
    {
      "hash": "0x504ca597cc467193cce1beffd6345ee3603d4eba016c0bc35a7650613c39c928",
      "transactionType": "CALL",
      "contractName": null,
      "contractAddress": "0x68c01dbd04447c971b4d55b06952348bc8bfed82",
      "function": "tokenizeReceivable((string,uint8,string,string,string,string,uint256,uint256,string,bytes32,string))",
      "arguments": [
        "(NFE-12345-2024, 0, ACME Corp Ltda, 12.345.678/0001-90, Cliente Exemplo Ltda, 98.765.432/0001-10, 50000, 1761196456, QmYjtig7VJQ6XsnUjqqJvj7QaMcCAwtrgNdahSiFofrE7o, 0x74622c3d98276cbc68701fc2d47347788354a926752b98184675690cbaeda1af, Venda de produtos - NFE 12345)"
      ],
      "transaction": {
        "from": "0x0d989268a4b52d9c7026fea8b442b5ea7247abd3",
        "to": "0x68c01dbd04447c971b4d55b06952348bc8bfed82",
        "gas": "0xf0d48",
        "value": "0x0",
        "input": "0x80ed04a900000000000000000000000000000000000000000000000000000000000000200000000000000000000000000000000000000000000000000000000000000160000000000000000000000000000000000000000000000000000000000000000000000000000000000000000000000000000000000000000000000000000001a000000000000000000000000000000000000000000000000000000000000001e000000000000000000000000000000000000000000000000000000000000002200000000000000000000000000000000000000000000000000000000000000260000000000000000000000000000000000000000000000000000000000000c3500000000000000000000000000000000000000000000000000000000068f9b9a800000000000000000000000000000000000000000000000000000000000002a074622c3d98276cbc68701fc2d47347788354a926752b98184675690cbaeda1af0000000000000000000000000000000000000000000000000000000000000300000000000000000000000000000000000000000000000000000000000000000e4e46452d31323334352d32303234000000000000000000000000000000000000000000000000000000000000000000000000000000000000000000000000000e41434d4520436f7270204c746461000000000000000000000000000000000000000000000000000000000000000000000000000000000000000000000000001231322e3334352e3637382f303030312d393000000000000000000000000000000000000000000000000000000000000000000000000000000000000000000014436c69656e7465204578656d706c6f204c746461000000000000000000000000000000000000000000000000000000000000000000000000000000000000001239382e3736352e3433322f303030312d31300000000000000000000000000000000000000000000000000000000000000000000000000000000000000000002e516d596a74696737564a513658736e556a71714a766a3751614d634341777472674e6461685369466f667245376f000000000000000000000000000000000000000000000000000000000000000000000000000000000000000000000000001d56656e64612064652070726f6475746f73202d204e4645203132333435000000",
        "nonce": "0x3",
        "chainId": "0x539"
      },
      "additionalContracts": [],
      "isFixedGasLimit": false
    },
    {
      "hash": "0x0b7ad9c574639e537e3dd767b0175c8fdcd97630a0169c5ddc9ee5d1b674c1aa",
      "transactionType": "CALL",
      "contractName": null,
      "contractAddress": "0x68c01dbd04447c971b4d55b06952348bc8bfed82",
      "function": "validateReceivable(uint256,bool,string,uint256)",
      "arguments": [
        "1",
        "true",
        "Document verified successfully",
        "0"
      ],
      "transaction": {
        "from": "0x0d989268a4b52d9c7026fea8b442b5ea7247abd3",
        "to": "0x68c01dbd04447c971b4d55b06952348bc8bfed82",
        "gas": "0x41533",
        "value": "0x0",
        "input": "0x9757c6be0000000000000000000000000000000000000000000000000000000000000001000000000000000000000000000000000000000000000000000000000000000100000000000000000000000000000000000000000000000000000000000000800000000000000000000000000000000000000000000000000000000000000000000000000000000000000000000000000000000000000000000000000000001e446f63756d656e74207665726966696564207375636365737366756c6c790000",
        "nonce": "0x4",
        "chainId": "0x539"
      },
      "additionalContracts": [],
      "isFixedGasLimit": false
    },
    {
      "hash": "0x3f1636ed39498553fc7a5d95d5f01494f07dbce58ea7e9dbb0214aa6ba18a219",
      "transactionType": "CALL",
      "contractName": null,
      "contractAddress": "0x68c01dbd04447c971b4d55b06952348bc8bfed82",
      "function": "activateReceivable(uint256,string)",
      "arguments": [
        "1",
        "Receivable activated for payment monitoring"
      ],
      "transaction": {
        "from": "0x0d989268a4b52d9c7026fea8b442b5ea7247abd3",
        "to": "0x68c01dbd04447c971b4d55b06952348bc8bfed82",
        "gas": "0x3e169",
        "value": "0x0",
        "input": "0x8066156700000000000000000000000000000000000000000000000000000000000000010000000000000000000000000000000000000000000000000000000000000040000000000000000000000000000000000000000000000000000000000000002b52656365697661626c652061637469766174656420666f72207061796d656e74206d6f6e69746f72696e67000000000000000000000000000000000000000000",
        "nonce": "0x5",
        "chainId": "0x539"
      },
      "additionalContracts": [],
      "isFixedGasLimit": false
    }
  ],
  "receipts": [
    {
      "status": "0x1",
      "cumulativeGasUsed": "0xa4ab9",
      "logs": [
        {
          "address": "0x68c01dbd04447c971b4d55b06952348bc8bfed82",
          "topics": [
            "0xc3d58168c5ae7397731d063d5bbf3d657854427343f4c083240f7aacaa2d0f62",
            "0x0000000000000000000000000d989268a4b52d9c7026fea8b442b5ea7247abd3",
            "0x0000000000000000000000000000000000000000000000000000000000000000",
            "0x0000000000000000000000000d989268a4b52d9c7026fea8b442b5ea7247abd3"
          ],
          "data": "0x00000000000000000000000000000000000000000000000000000000000000010000000000000000000000000000000000000000000000000000000000000001",
          "blockHash": "0xd838cab68c044c469859699545a9eacdd9d35e48621ddaf96da9b9fea644e1de",
          "blockNumber": "0x1b097b",
          "transactionHash": "0x504ca597cc467193cce1beffd6345ee3603d4eba016c0bc35a7650613c39c928",
          "transactionIndex": "0x0",
          "logIndex": "0x0",
          "removed": false
        },
        {
          "address": "0x68c01dbd04447c971b4d55b06952348bc8bfed82",
          "topics": [
            "0x572f5cd4043b746386cc7007c732fc0c94f212bb192f4ff7c0dcaa34fdc470d6",
            "0x0000000000000000000000000000000000000000000000000000000000000001",
            "0x56eb7d45f32186458770111a0ce528765f53a3ec34e7f72546ccd06b4bd8b074",
            "0x0000000000000000000000000d989268a4b52d9c7026fea8b442b5ea7247abd3"
          ],
          "data": "0x00000000000000000000000000000000000000000000000000000000000000a0000000000000000000000000000000000000000000000000000000000000c3500000000000000000000000000000000000000000000000000000000068f9b9a800000000000000000000000000000000000000000000000000000000000000000000000000000000000000000000000000000000000000000000000068d22caa000000000000000000000000000000000000000000000000000000000000001239382e3736352e3433322f303030312d31300000000000000000000000000000",
          "blockHash": "0xd838cab68c044c469859699545a9eacdd9d35e48621ddaf96da9b9fea644e1de",
          "blockNumber": "0x1b097b",
          "transactionHash": "0x504ca597cc467193cce1beffd6345ee3603d4eba016c0bc35a7650613c39c928",
          "transactionIndex": "0x0",
          "logIndex": "0x1",
          "removed": false
        }
      ],
      "logsBloom": "0x000c0000000000000000000000000010000000000000000000000000000000010000000000000000000000000000000000000000000000000000000000042000000000000000000000000000000000000000000000040000000000000000000000000000020002000000000004000800000000000000000000000000000000000000000000000000004080000000000000000000000000000000000000000000000100000000000000000000000000000000000000000000000000000000000000000000000000000000000000000000000000000008000000000000000060004000020000000000000000000000000000000000000000000020080000000000",
      "type": "0x0",
      "transactionHash": "0x504ca597cc467193cce1beffd6345ee3603d4eba016c0bc35a7650613c39c928",
      "transactionIndex": "0x0",
      "blockHash": "0xd838cab68c044c469859699545a9eacdd9d35e48621ddaf96da9b9fea644e1de",
      "blockNumber": "0x1b097b",
      "gasUsed": "0xa4ab9",
      "effectiveGasPrice": "0x0",
      "from": "0x0d989268a4b52d9c7026fea8b442b5ea7247abd3",
      "to": "0x68c01dbd04447c971b4d55b06952348bc8bfed82",
      "contractAddress": null
    },
    {
      "status": "0x1",
      "cumulativeGasUsed": "0xd1564",
      "logs": [
        {
          "address": "0x68c01dbd04447c971b4d55b06952348bc8bfed82",
          "topics": [
            "0x3ded1956998639cfc41b20afdf29138d8db0fbdccd5c328d57ef6bbe975724ba",
            "0x0000000000000000000000000000000000000000000000000000000000000001",
            "0x0000000000000000000000000000000000000000000000000000000000000000",
            "0x0000000000000000000000000000000000000000000000000000000000000001"
          ],
          "data": "0x0000000000000000000000000d989268a4b52d9c7026fea8b442b5ea7247abd300000000000000000000000000000000000000000000000000000000000000600000000000000000000000000000000000000000000000000000000068d22caa000000000000000000000000000000000000000000000000000000000000001456616c69646174696f6e20636f6d706c65746564000000000000000000000000",
          "blockHash": "0xd838cab68c044c469859699545a9eacdd9d35e48621ddaf96da9b9fea644e1de",
          "blockNumber": "0x1b097b",
          "transactionHash": "0x0b7ad9c574639e537e3dd767b0175c8fdcd97630a0169c5ddc9ee5d1b674c1aa",
          "transactionIndex": "0x1",
          "logIndex": "0x2",
          "removed": false
        },
        {
          "address": "0x68c01dbd04447c971b4d55b06952348bc8bfed82",
          "topics": [
            "0x568fbac1d6dbad9cc17a287a2005939ce73a46b123bffe6e2f358fd6358f641d",
            "0x0000000000000000000000000000000000000000000000000000000000000001",
            "0x0000000000000000000000000d989268a4b52d9c7026fea8b442b5ea7247abd3"
          ],
          "data": "0x000000000000000000000000000000000000000000000000000000000000000100000000000000000000000000000000000000000000000000000000000000600000000000000000000000000000000000000000000000000000000068d22caa000000000000000000000000000000000000000000000000000000000000001e446f63756d656e74207665726966696564207375636365737366756c6c790000",
          "blockHash": "0xd838cab68c044c469859699545a9eacdd9d35e48621ddaf96da9b9fea644e1de",
          "blockNumber": "0x1b097b",
          "transactionHash": "0x0b7ad9c574639e537e3dd767b0175c8fdcd97630a0169c5ddc9ee5d1b674c1aa",
          "transactionIndex": "0x1",
          "logIndex": "0x3",
          "removed": false
        }
      ],
      "logsBloom": "0x00040000000000000000000000000010000000000000040010000000000000000000000000000000000000000000000000000000000000000000000000040000000000000000000000000000000000000000000000040000000000000000000000000000020002000000000000000800000004000000000000000000000000000000000000000000000000000000000000000000000000000000000000000000000000000000000000000000000000000000000080000000000000000000000000000000000000000000000000000000000000000000000000000000000060004000020000000000100000000000000000000000000000000020000000000010",
      "type": "0x0",
      "transactionHash": "0x0b7ad9c574639e537e3dd767b0175c8fdcd97630a0169c5ddc9ee5d1b674c1aa",
      "transactionIndex": "0x1",
      "blockHash": "0xd838cab68c044c469859699545a9eacdd9d35e48621ddaf96da9b9fea644e1de",
      "blockNumber": "0x1b097b",
      "gasUsed": "0x2caab",
      "effectiveGasPrice": "0x0",
      "from": "0x0d989268a4b52d9c7026fea8b442b5ea7247abd3",
      "to": "0x68c01dbd04447c971b4d55b06952348bc8bfed82",
      "contractAddress": null
    },
    {
      "status": "0x1",
      "cumulativeGasUsed": "0xfe49b",
      "logs": [
        {
          "address": "0x68c01dbd04447c971b4d55b06952348bc8bfed82",
          "topics": [
            "0x3ded1956998639cfc41b20afdf29138d8db0fbdccd5c328d57ef6bbe975724ba",
            "0x0000000000000000000000000000000000000000000000000000000000000001",
            "0x0000000000000000000000000000000000000000000000000000000000000001",
            "0x0000000000000000000000000000000000000000000000000000000000000002"
          ],
          "data": "0x0000000000000000000000000d989268a4b52d9c7026fea8b442b5ea7247abd300000000000000000000000000000000000000000000000000000000000000600000000000000000000000000000000000000000000000000000000068d22caa000000000000000000000000000000000000000000000000000000000000002b52656365697661626c652061637469766174656420666f72207061796d656e74206d6f6e69746f72696e67000000000000000000000000000000000000000000",
          "blockHash": "0xd838cab68c044c469859699545a9eacdd9d35e48621ddaf96da9b9fea644e1de",
          "blockNumber": "0x1b097b",
          "transactionHash": "0x3f1636ed39498553fc7a5d95d5f01494f07dbce58ea7e9dbb0214aa6ba18a219",
          "transactionIndex": "0x2",
          "logIndex": "0x4",
          "removed": false
        }
      ],
      "logsBloom": "0x04000000000000000000000000000010000000000000000010000000000000000000000000000000000000000000000000000000000000000000000000040000000000000000000000000000000000000000000000040000000000000000000000000000000000000000000000000000000004000000000000000000000000000000000000000000000000000000000000000000000000000000000000000000000000000000000000000100000000000000000000000000000000000000000000000000000000000000000000000000000000000000000000000000000040004000000000000000000000000000000000000000008000000020000000000010",
      "type": "0x0",
      "transactionHash": "0x3f1636ed39498553fc7a5d95d5f01494f07dbce58ea7e9dbb0214aa6ba18a219",
      "transactionIndex": "0x2",
      "blockHash": "0xd838cab68c044c469859699545a9eacdd9d35e48621ddaf96da9b9fea644e1de",
      "blockNumber": "0x1b097b",
      "gasUsed": "0x2cf37",
      "effectiveGasPrice": "0x0",
      "from": "0x0d989268a4b52d9c7026fea8b442b5ea7247abd3",
      "to": "0x68c01dbd04447c971b4d55b06952348bc8bfed82",
      "contractAddress": null
    }
  ],
  "libraries": [],
  "pending": [],
  "returns": {},
  "timestamp": 1758604458329,
  "chain": 1337,
  "commit": "4ff7a17"
}